:100000000C94BC000C94D9000C94D9000C94D90029
:100010000C94D9000C94D9000C94D9000C94D900FC
:100020000C94D9000C94D9000C94EA000C94D900DB
:100030000C94D9000C94D9000C94D9000C94D900DC
:100040000C94D9000C94D9000C94D9000C94D900CC
:100050000C94D9000C94D9000C94D9000C94D900BC
:100060000C94D9000C94D9000C94D9000C94D900AC
:100070000C94D9000C94D9000C94D9000C94D9009C
:100080000C94D9000C94D9000C94D9000C94D9008C
:100090000C94D9000C94D9000C94D9000C94D9007C
:1000A0000C94D9000C94D9000C94D9000C94D9006C
:1000B0000C94D9000C94D9000C94D9000C94D9005C
:1000C0000C94D9000C94D9000C94D9000C94D9004C
:1000D0000C94D9000C94D9000C94D9000C94D9003C
:1000E0000C94D9000C94D9000C94D9000C94D9002C
:1000F0000C94D9000C94D9000C94D9000C94D9001C
:100100000C94D9000C94D9000C9450010C94D90093
:100110000C94D9000C94D9000C94D9000C94D900FB
:100120000C94D9000C94D9000C94D9000C94D900EB
:100130000C94D9000C94D9000C94D9000C94D900DB
:100140000C94D9000C94D9000C94D9000C94D900CB
:100150000C94D9000C94D9000C94D9000C94D900BB
:100160000C94D9000C94D9000C94D9000C94D900AB
:100170000C94D9000C94D90011241FBECFEFCDBF31
:10018000D7E2DEBF10E2A0E0B0E2EEE4F3E002C0AE
:1001900005900D92A030B107D9F720E2A0E0B0E2BF
:1001A00001C01D92A430B207E1F70E940F010C9428
:1001B000A5010C94000088ED84BF82E0809350007C
:1001C0008091510081FFFCCF88ED84BF81E0809356
:1001D000400008951F920F920FB60F9211248F9333
:1001E0009F93AF93BF938091002090910120A091A5
:1001F0000220B09103200196A11DB11D8093002023
:1002000090930120A0930220B0930320BF91AF915F
:100210009F918F910F900FBE0F901F9018950E9485
:10022000DB0082E0809352008091500088608093D0
:1002300050008091510083FFFCCF8091A200846028
:100240008093A2008091010480FDFCCF8FEF93E0AA
:1002500080930A0490930B0481E0809300048091C2
:10026000020483608093020483E0809343000E9431
:100270009001C7E00E9451018091010480FDFCCFF4
:10028000C093480078948895F5CF8FE0E0E6F6E0DB
:100290008683E0EAF0E08281816082837894089529
:1002A000189580E090E0AFE041E050E0A093650653
:1002B0009A01082E01C0220F0A94EAF720936606DD
:1002C000609108066F3F49F401968430910571F7FB
:1002D0000E94450180E090E008952FEF39EF70E033
:1002E000215030407040E1F700C0000020E030E0D5
:1002F00070E0FB01022E02C0F595E7950A94E2F743
:10030000E0FF08C043E0880F991F4A95E1F7820F8C
:10031000931F08952F5F3F4F2830310551F7D4CFF9
:10032000E0E0F6E010828FE08093600688E1808B49
:10033000818B828B838B848B858B868B878B8FEFD6
:0E034000828781E081870C944501F894FFCFFD
:00000001FF
