:100000000C9400010C9418010C9418010C94180124
:100010000C9418010C9418010C9418010C941801FC
:100020000C9418010C9418010C9418010C941801EC
:100030000C9418010C9418010C9418010C941801DC
:100040000C9418010C9418010C9418010C941801CC
:100050000C9418010C9418010C9418010C941801BC
:100060000C9418010C9418010C9418010C941801AC
:100070000C9418010C9418010C9418010C9418019C
:100080000C9418010C9418010C9418010C9418018C
:100090000C9418010C9418010C9418010C9418017C
:1000A0000C9418010C9418010C9418010C9418016C
:1000B0000C9418010C9418010C9418010C9418015C
:1000C0000C9418010C9418010C9418010C9418014C
:1000D0000C9418010C9418010C9418010C9418013C
:1000E0000C9418010C9418010C9418010C9418012C
:1000F0000C9418010C9418010C9418010C9418011C
:100100000C9418010C9418010C9418010C9418010B
:100110000C9418010C9418010C9418010C941801FB
:100120000C9418010C9418010C9418010C941801EB
:100130000C9418010C9418010C9418010C941801DB
:100140000C9418010C9418010C9418010C941801CB
:100150000C9418010C9418010C9418010C941801BB
:100160000C9418010C9418010C9418010C941801AB
:100170000C9418010C9418010C9418010C9418019B
:100180000C9418010C9418010C9418010C9418018B
:100190000C9418010C9418010C9418010C9418017B
:1001A0000C9418010C9418010C9418010C9418016B
:1001B0000C9418010C9418010C9418010C9418015B
:1001C0000C9418010C9418010C9418010C9418014B
:1001D0000C9418010C9418010C9418010C9418013B
:1001E0000C9418010C9418010C9418010C9418012B
:1001F0000C9418010C9418010C9418010C9418011B
:1002000011241FBECFEFDFE3DEBFCDBF00E00CBF88
:1002100018BE19BE1ABE1BBE14E2A0E0B0E201C0B7
:100220001D92A030B107E1F70E9484010C94A20155
:100230000C94000094E09093660698E020E18823F7
:1002400069F09093650687FF03C02093650602C09E
:100250002093660690936606880FF1CF0895E1E635
:10026000F6E092E0908384E0808380E1808388E000
:10027000808381E08083E5E6F6E09083808380E4FC
:100280000E941A0181EA0E941A0180EC0E941A0160
:1002900086EA0E941A0182EA0E941A018FE20E94F5
:1002A0001A0188EF0E941A0180E00E941A0187E279
:1002B0000E941A0181E80E941A0186E10E941A0137
:1002C0008DEA0E941A0181E00E941A018FEA0C94C3
:1002D0001A01E0E0F0E2119284E2E030F807D9F789
:1002E00008950E942F010C94690188ED84BF82E07B
:1002F000809350008091510081FFFCCF88ED84BF36
:1003000081E08093400008950E9475010E94710170
:1003100081E080934106809345062FEF33ED90E313
:10032000215030409040E1F700C000008093460625
:100330002FEF33ED90E3215030409040E1F700C0C3
:080340000000E9CFF894FFCFA3
:00000001FF
